{
  "contractName": "Conference",
  "abi": [
    {
      "constant": true,
      "inputs": [
        {
          "name": "",
          "type": "address"
        }
      ],
      "name": "registrantsPaid",
      "outputs": [
        {
          "name": "",
          "type": "uint256"
        }
      ],
      "payable": false,
      "stateMutability": "view",
      "type": "function"
    },
    {
      "constant": true,
      "inputs": [],
      "name": "organizer",
      "outputs": [
        {
          "name": "",
          "type": "address"
        }
      ],
      "payable": false,
      "stateMutability": "view",
      "type": "function"
    },
    {
      "constant": true,
      "inputs": [],
      "name": "speaker",
      "outputs": [
        {
          "name": "",
          "type": "address"
        }
      ],
      "payable": false,
      "stateMutability": "view",
      "type": "function"
    },
    {
      "constant": true,
      "inputs": [],
      "name": "quota",
      "outputs": [
        {
          "name": "",
          "type": "uint256"
        }
      ],
      "payable": false,
      "stateMutability": "view",
      "type": "function"
    },
    {
      "constant": true,
      "inputs": [],
      "name": "numRegistrants",
      "outputs": [
        {
          "name": "",
          "type": "uint256"
        }
      ],
      "payable": false,
      "stateMutability": "view",
      "type": "function"
    },
    {
      "inputs": [
        {
          "name": "speakaddr",
          "type": "address"
        }
      ],
      "payable": false,
      "stateMutability": "nonpayable",
      "type": "constructor"
    },
    {
      "constant": false,
      "inputs": [
        {
          "name": "newquota",
          "type": "uint256"
        }
      ],
      "name": "changeQuota",
      "outputs": [],
      "payable": false,
      "stateMutability": "nonpayable",
      "type": "function"
    },
    {
      "constant": false,
      "inputs": [],
      "name": "buyTicket",
      "outputs": [
        {
          "name": "success",
          "type": "bool"
        }
      ],
      "payable": true,
      "stateMutability": "payable",
      "type": "function"
    },
    {
      "constant": false,
      "inputs": [
        {
          "name": "num",
          "type": "uint256"
        }
      ],
      "name": "buyMultipleTickets",
      "outputs": [
        {
          "name": "success",
          "type": "bool"
        }
      ],
      "payable": true,
      "stateMutability": "payable",
      "type": "function"
    },
    {
      "constant": false,
      "inputs": [
        {
          "name": "recipient",
          "type": "address"
        },
        {
          "name": "amount",
          "type": "uint256"
        }
      ],
      "name": "refundTicket",
      "outputs": [],
      "payable": false,
      "stateMutability": "nonpayable",
      "type": "function"
    },
    {
      "constant": false,
      "inputs": [],
      "name": "destroy",
      "outputs": [],
      "payable": false,
      "stateMutability": "nonpayable",
      "type": "function"
    }
  ],
  "bytecode": "0x6060604052341561000f57600080fd5b6040516020806107f983398101604052808051906020019091905050336000806101000a81548173ffffffffffffffffffffffffffffffffffffffff021916908373ffffffffffffffffffffffffffffffffffffffff1602179055506101f4600281905550600060048190555080600360006101000a81548173ffffffffffffffffffffffffffffffffffffffff021916908373ffffffffffffffffffffffffffffffffffffffff1602179055505061072c806100cd6000396000f3006060604052600436106100a4576000357c0100000000000000000000000000000000000000000000000000000000900463ffffffff16806313381fbf146100a957806320c94be8146100f65780636120326514610126578063705099b91461017b57806383197ef0146101bd578063840931c6146101d2578063a977c71e14610227578063cebe09c91461024a578063ec3a6f7314610273578063edca914c1461029c575b600080fd5b34156100b457600080fd5b6100e0600480803573ffffffffffffffffffffffffffffffffffffffff169060200190919050506102be565b6040518082815260200191505060405180910390f35b61010c60048080359060200190919050506102d6565b604051808215151515815260200191505060405180910390f35b341561013157600080fd5b610139610347565b604051808273ffffffffffffffffffffffffffffffffffffffff1673ffffffffffffffffffffffffffffffffffffffff16815260200191505060405180910390f35b341561018657600080fd5b6101bb600480803573ffffffffffffffffffffffffffffffffffffffff1690602001909190803590602001909190505061036c565b005b34156101c857600080fd5b6101d06104d3565b005b34156101dd57600080fd5b6101e56105f2565b604051808273ffffffffffffffffffffffffffffffffffffffff1673ffffffffffffffffffffffffffffffffffffffff16815260200191505060405180910390f35b341561023257600080fd5b6102486004808035906020019091905050610618565b005b341561025557600080fd5b61025d61067e565b6040518082815260200191505060405180910390f35b341561027e57600080fd5b610286610684565b6040518082815260200191505060405180910390f35b6102a461068a565b604051808215151515815260200191505060405180910390f35b60016020528060005260406000206000915090505481565b60006002546004541015156102ee5760009050610342565b34600160003373ffffffffffffffffffffffffffffffffffffffff1673ffffffffffffffffffffffffffffffffffffffff168152602001908152602001600020819055508160045401600481905550600190505b919050565b6000809054906101000a900473ffffffffffffffffffffffffffffffffffffffff1681565b60008060009054906101000a900473ffffffffffffffffffffffffffffffffffffffff1673ffffffffffffffffffffffffffffffffffffffff163373ffffffffffffffffffffffffffffffffffffffff161415156103c9576104ce565b81600160008573ffffffffffffffffffffffffffffffffffffffff1673ffffffffffffffffffffffffffffffffffffffff1681526020019081526020016000205414156104cd57309050818173ffffffffffffffffffffffffffffffffffffffff16311015156104cc578273ffffffffffffffffffffffffffffffffffffffff166108fc839081150290604051600060405180830381858888f19350505050151561047357600080fd5b6000600160008573ffffffffffffffffffffffffffffffffffffffff1673ffffffffffffffffffffffffffffffffffffffff16815260200190815260200160002081905550600460008154809291906001900391905055505b5b5b505050565b60008060009054906101000a900473ffffffffffffffffffffffffffffffffffffffff1673ffffffffffffffffffffffffffffffffffffffff163373ffffffffffffffffffffffffffffffffffffffff1614156105ef57309050600360009054906101000a900473ffffffffffffffffffffffffffffffffffffffff1673ffffffffffffffffffffffffffffffffffffffff166108fc606460508473ffffffffffffffffffffffffffffffffffffffff16310281151561058f57fe5b049081150290604051600060405180830381858888f1935050505015156105b557600080fd5b6000809054906101000a900473ffffffffffffffffffffffffffffffffffffffff1673ffffffffffffffffffffffffffffffffffffffff16ff5b50565b600360009054906101000a900473ffffffffffffffffffffffffffffffffffffffff1681565b6000809054906101000a900473ffffffffffffffffffffffffffffffffffffffff1673ffffffffffffffffffffffffffffffffffffffff163373ffffffffffffffffffffffffffffffffffffffff161415156106735761067b565b806002819055505b50565b60025481565b60045481565b60006002546004541015156106a257600090506106fd565b34600160003373ffffffffffffffffffffffffffffffffffffffff1673ffffffffffffffffffffffffffffffffffffffff16815260200190815260200160002081905550600460008154809291906001019190505550600190505b905600a165627a7a72305820132c8e452b931ed6bd9a1c14cbce0789f3fe711e2752d88546278b90388e4ce30029",
  "source": "pragma solidity ^0.4.4;\ncontract Conference {\naddress public organizer;\nmapping (address => uint) public registrantsPaid;\nuint public quota;\naddress public speaker; //added speaker field\nuint public numRegistrants;\n// Constructor\nfunction Conference(address speakaddr) {\norganizer = msg.sender;\nquota = 500;\nnumRegistrants = 0;\nspeaker=speakaddr; //initialised speaker field in constructor\n}\nfunction changeQuota(uint newquota) public {\nif (msg.sender != organizer) { return; }\nquota = newquota;\n}\nfunction buyTicket() public payable returns (bool success) {\nif (numRegistrants >= quota) { return false; }\nregistrantsPaid[msg.sender] = msg.value;\nnumRegistrants++;\nreturn true;\n}\n//added by multiple tickets function\nfunction buyMultipleTickets(uint num) public payable returns (bool success) {\nif (numRegistrants >= quota) { return false; }\nregistrantsPaid[msg.sender] = msg.value;\nnumRegistrants=numRegistrants+num;\nreturn true;\n}\nfunction refundTicket(address recipient, uint amount) public {\nif (msg.sender != organizer) { return; }\nif (registrantsPaid[recipient] == amount) {\naddress myAddress = this;\nif (myAddress.balance >= amount) {\nif(!recipient.send(amount)) throw;\nregistrantsPaid[recipient] = 0;\nnumRegistrants--;\n}}}\nfunction destroy() {\nif (msg.sender == organizer) {\naddress myAddress = this; //getting contract address\nif(!speaker.send(((myAddress.balance)*(80))/100)) throw;\n// sending 80% funds to speaker\nsuicide(organizer); // send funds to organizer\n}\n}\n}//end of conference\n",
  "sourcePath": "/home/kmit/G_Conf/contracts/Conference.sol",
  "compiler": {
    "name": "solc",
    "version": "0.4.19+commit.c4cbbb05.Emscripten.clang"
  },
  "schemaVersion": "1.0.1",
  "updatedAt": "2018-06-22T04:55:22.076Z"
}